:020000040000FA
:1000000060020020F1020000F9020000FB02000083
:10001000FD020000FF0200000103000000000000DC
:1000200000000000000000000000000003030000CA
:1000300005030000000000000703000009030000A2
:100040000B0300000D0300000F030000110300006C
:10005000130300001503000017030000190300003C
:100060001B0300001D0300001F030000210300000C
:1000700023030000250300002703000029030000DC
:100080002B0300002D0300002F03000031030000AC
:10009000330300003503000037030000390300007C
:1000A0003B0300003D0300003F030000410300004C
:1000B000430300004503000047030000490300001C
:1000C0004B0300004D0300004F03000051030000EC
:1000D00053030000550300005703000059030000BC
:1000E0005B0300005D030000000000005F030000F0
:1000F0006103000063030000650300006703000064
:10010000690300006B0300006D0300006F03000033
:1001100000000000000000007103000073030000F5
:100120007503000077030000790300007B030000E3
:100130007D0300007F0300008103000083030000B3
:1001400000000000000000000000000000000000AF
:100150008503000087030000890300008B03000073
:10016000000000000000000000000000000000008F
:10017000000000000000000000000000000000007F
:10018000000000000000000000000000000000006F
:10019000000000000000000000000000000000005F
:1001A000000000000000000000000000000000004F
:1001B0008D0300008F0300009103000093030000F3
:1001C0009503000097030000990300009B030000C3
:1001D0009D0300009F030000A1030000A303000093
:1001E000A5030000A7030000A90300000000000011
:1001F00000000000AB030000AD030000AF030000EF
:10020000B1030000B3030000000000000000000084
:10021000B5030000B7030000B9030000BB030000F2
:10022000BD030000BF030000C1030000C3030000C2
:10023000C5030000C7030000C9030000CB03000092
:10024000CD030000CF030000D1030000D303000062
:10025000D5030000D7030000D9030000DB03000032
:10026000DD030000DF030000E103000000F002F8FE
:1002700000F02EF80AA090E8000C82448344AAF112
:100280000107DA4501D100F023F8AFF2090EBAE810
:100290000F0013F0010F18BFFB1A43F001031847BA
:1002A0002005000030050000002300240025002662
:1002B000103A28BF78C1FBD8520728BF30C148BFC9
:1002C0000B6070471FB500F075FA1FBD10B510BD6B
:1002D00000F09BF81146FFF7F5FF00F019FA00F067
:1002E000B9F803B4FFF7F2FF03BC00F0C1F8000057
:1002F0003F4880473F480047FEE7FEE7FEE7FEE74E
:10030000FEE7FEE7FEE7FEE7FEE7FEE7FEE7FEE7C5
:10031000FEE7FEE7FEE7FEE7FEE7FEE7FEE7FEE7B5
:10032000FEE7FEE7FEE7FEE7FEE7FEE7FEE7FEE7A5
:10033000FEE7FEE7FEE7FEE7FEE7FEE7FEE7FEE795
:10034000FEE7FEE7FEE7FEE7FEE7FEE7FEE7FEE785
:10035000FEE7FEE7FEE7FEE7FEE7FEE7FEE7FEE775
:10036000FEE7FEE7FEE7FEE7FEE7FEE7FEE7FEE765
:10037000FEE7FEE7FEE7FEE7FEE7FEE7FEE7FEE755
:10038000FEE7FEE7FEE7FEE7FEE7FEE7FEE7FEE745
:10039000FEE7FEE7FEE7FEE7FEE7FEE7FEE7FEE735
:1003A000FEE7FEE7FEE7FEE7FEE7FEE7FEE7FEE725
:1003B000FEE7FEE7FEE7FEE7FEE7FEE7FEE7FEE715
:1003C000FEE7FEE7FEE7FEE7FEE7FEE7FEE7FEE705
:1003D000FEE7FEE7FEE7FEE7FEE7FEE7FEE7FEE7F5
:1003E000FEE7000004480549034A054B704700003A
:1003F000FD0500006D02000060000020600200208A
:1004000060000020704770477047754600F02CF878
:10041000AE4605006946534620F00700854618B0F1
:1004200020B5FFF7DFFFBDE820404FF000064FF09A
:1004300000074FF000084FF0000B21F00701AC4619
:10044000ACE8C009ACE8C009ACE8C009ACE8C00938
:100450008D46704710B50446AFF300802046BDE8D6
:100460001040FFF73EBF000000487047000000202A
:1004700001491820ABBEFEE72600020070470000CD
:10048000034B1A60034BC3F8FC03034B196070471E
:10049000FC43024000500040FC73004008B5154882
:1004A000006840F0010013490860202000901248C5
:1004B000006820F0E00010490860081D006820F482
:1004C0007000091D08600D48006820F0E0000B492D
:1004D00008600A482030006820F0E0000749203119
:1004E000086005480C38006840F0E00002490C390B
:1004F000086008BD08E60F40284500400044004061
:1005000008B51048006840F002000F49C1F8080122
:1005100020200090FF200D4908600020091D086080
:10052000091D0860FF200A490860002008492031A1
:100530000860064914390860FF200449083908603A
:1005400008BD000008E10F4000E00F4024550040C6
:100550000054004008B51048006840F008000F49FA
:10056000C1F80801202000900F200D4908600020EC
:10057000091D0860091D08600F200A490860002055
:100580000849203108600649143908600F200449E1
:100590000839086008BD000008E10F4000E00F4086
:1005A000247500400074004008B50E48006840F013
:1005B00010000D49C1F80801202000900F200B49C0
:1005C00008600020091D0860091D08600F20084907
:1005D000086000200649203108600F2003490839CF
:1005E000086008BD08E10F4000E00F4024450240CC
:1005F0000044024010B5FFF751FF10BD1B490968C8
:1006000041F47001194A116019491A4A11671A49CF
:1006100011661A4911661A491167002000E0401C52
:10062000B0F57A7FFBD31749124A11661649116754
:10063000002000E0401CB0F57A7FFBD313490D4A3F
:10064000116600BF0B49096D01F040014029F9D145
:100650000F49084A11664FF0C0711167002000E091
:10066000401C42F210718842FAD3704788ED00E0D6
:100670001028800700E00F40D13A8E07422D9E01DE
:1006800000288001420D9E0100088001420DDE011C
:100690004205DE01134A126842F00102114B1A6052
:1006A0000022114BDA6004221A6002225A6043F6DB
:1006B0007F629A6201225A621A46D26842F00102AF
:1006C000DA6000210AE000BF074AD26902F00102A5
:1006D000002AF9D00122044B5A62491C8142F2DB04
:1006E0007047000004E60F40000003400148006826
:1006F000704700000041004001480068704700005A
:1007000080400040014800687047000000420040FF
:1007100000F048F8FFF76EFF00240025002640E0B7
:100720002A4621463046FFF7ABFEFFF7E5FFA8B1AA
:100730004FF4C870FFF7AEFFFFF7DEFF70B1092D71
:100740000BD10025092C06D10024092E01D1002649
:1007500004E0761C02E0641C00E06D1CFFF7C6FF9D
:1007600090B94FF4C870FFF795FFFFF7BFFF58B17E
:100770004DB909252CB909240EB9092604E0761EC5
:1007800002E0641E00E06D1EFFF7BCFF48B14FF4AD
:10079000FA70FFF77FFFFFF7B5FF10B900250024BF
:1007A0000026BDE710B5FFF7ABFEFFF7FDFEFFF734
:1007B000D1FE10BD4FF04070E1EE100A704700000E
:1007C000D00700000000002060020000A802000026
:04000005000002F104
:00000001FF
